S014000041737369676E6D656E745F342E7372656364
S11300000C942A000C9440000C9434000C9434009A
S11300100C9434000C9434000C9434000C9434008C
S11300200C9434000C9434000C9434000C9434007C
S11300300C9434000C9434000C9434000C9434006C
S11300400C9434000C9434000C9434000C9434005C
S11300500C94340011241FBECFE5D8E0DEBFCDBF21
S11300600E946D000C9405020C94000080E00E9434
S1130070EE0082E00E94EE0081E00E94EE0008950E
S11300801F920F920FB60F9211242F933F934F9309
S11300905F936F937F938F939F93AF93BF93EF93EC
S11300A0FF930E9436002FEF83ED90E321508040B0
S11300B09040E1F700C00000FF91EF91BF91AF9134
S11300C09F918F917F916F915F914F913F912F916C
S11300D00F900FBE0F901F901895CF93DF9300D011
S11300E01F92CDB7DEB70E94AC000E94B2000E94FE
S11300F0060181E0898382E08A831B8280E00E947A
S1130100B600E12CF12C23C0E1E0F0E0EC0FFD1F80
S1130110EE0DFF1D80810E94D6008FE39CE90197BC
S1130120F1F700C000000F5F1F4F02C000E010E0B5
S1130130083C11054CF3E1E0F0E0EC0FFD1FEE0D7F
S1130140FF1D80810E94EE009FEFE91AF90A83E007
S1130150E816F1045CF3D5CF8BB340E060E00E9475
S11301601F0108958BB381608BBB08959FB790687E
S11301709FBF882319F0813069F0089540E062E060
S113018083E00E941F0185B7836085BF8BB78064BD
S11301908BBF089540E063E083E00E941F0185B7B0
S11301A08C6085BF8BB780688BBF0895813051F018
S11301B018F0823069F0089541E064E083E00E9421
S11301C09201089541E060E083E00E949201089565
S11301D041E065E083E00E9492010895813051F08E
S11301E018F0823069F0089540E064E083E00E94F2
S11301F09201089540E060E083E00E949201089536
S113020040E065E083E00E949201089541E064E0EB
S113021083E00E941F0180E00E94EE0041E060E064
S113022083E00E941F0181E00E94EE0041E065E04E
S113023083E00E941F0182E00E94EE00089568306E
S113024008F06FC0843008F06CC0813001F130F0E8
S11302508230B1F1833009F44CC00895413059F42F
S11302602AB381E090E002C0880F991F6A95E2F7F3
S1130270822B8ABB08952AB381E090E002C0880FE4
S1130280991F6A95E2F7809582238ABB08954130CD
S113029059F427B381E090E002C0880F991F6A9552
S11302A0E2F7822B87BB089527B381E090E002C078
S11302B0880F991F6A95E2F78095822387BB08957A
S11302C0413059F424B381E090E002C0880F991FB3
S11302D06A95E2F7822B84BB089524B381E090E011
S11302E002C0880F991F6A95E2F78095822384BB28
S11302F00895413059F421B381E090E002C0880FA1
S1130300991F6A95E2F7822B81BB089521B381E09E
S113031090E002C0880F991F6A95E2F780958223C6
S113032081BB0895683008F06FC0843008F06CC059
S1130330813001F130F08230B1F1833009F44CC0E6
S11303400895413059F42BB381E090E002C0880F46
S1130350991F6A95E2F7822B8BBB08952BB381E03A
S113036090E002C0880F991F6A95E2F78095822376
S11303708BBB0895413059F428B381E090E002C06A
S1130380880F991F6A95E2F7822B88BB089528B3DA
S113039081E090E002C0880F991F6A95E2F780958A
S11303A0822388BB0895413059F425B381E090E05D
S11303B002C0880F991F6A95E2F7822B85BB0895C6
S11303C025B381E090E002C0880F991F6A95E2F797
S11303D08095822385BB0895413059F422B381E08E
S11303E090E002C0880F991F6A95E2F7822B82BBC6
S11303F0089522B381E090E002C0880F991F6A95A6
S1110400E2F78095822382BB0895F894FFCF23
S9030000FC
