:100000000C9436000C9457000C944B000C944B004D
:100010000C944B000C944B000C944B000C944B0034
:100020000C944B000C944B000C944B000C944B0024
:100030000C944B000C944B000C944B000C944B0014
:100040000C944B000C944B000C944B000C944B0004
:100050000C944B0045014701300132013401360157
:1000600038013A013C013E014001420111241FBE0A
:10007000CFE5D8E0DEBFCDBF10E0A0E6B0E0EEE215
:10008000F8E002C005900D92A236B107D9F70E94A0
:1000900084000C9415040C94000080E00E94B902C6
:1000A00082E00E94B90281E00E94B90208951F9285
:1000B0000F920FB60F9211242F933F934F935F939C
:1000C0006F937F938F939F93AF93BF93EF93FF9320
:1000D0000E944D002FEF83ED90E32150804090402F
:1000E000E1F700C00000FF91EF91BF91AF919F91A8
:1000F0008F917F916F915F914F913F912F910F90D1
:100100000FBE0F901F901895CF93DF9300D0CDB7FF
:10011000DEB70E94E7010E94AF000E94A4000E9487
:10012000AA0081110DC0CE0101960E94D300882340
:10013000B1F389819A810E9427010E941B02EFCFAF
:1001400081E00E944901EBCF8BB340E063E00E9465
:10015000D102089563E080E00E94B703089541E072
:1001600060E083E00E94D10241E061E083E00E9410
:10017000D10241E062E083E00E94D10241E063E00D
:1001800083E00E94D10240E060E080E00E94D10262
:1001900040E061E080E00E94D10240E062E080E067
:1001A0000E94D1020895CF92DF92EF92FF920F93B7
:1001B0001F93CF93DF937C0100E010E03CC0C02E82
:1001C00041E0602F83E00E944403C0E0D0E029C0FA
:1001D000DC2E6C2F80E00E94B70391E0811101C0FA
:1001E00090E08823E9F09801220F331F020F131FBC
:1001F000C00FD11F2196F701D183C08308C06D2D98
:1002000080E00E94B70391E0811101C090E091115C
:10021000F6CF40E06C2D83E00E94440381E00EC0E5
:100220002196C330D105A4F240E06C2D83E00E94FA
:1002300044030F5F1F4F043011050CF2DF91CF9183
:100240001F910F91FF90EF90DF90CF90089501974D
:100250008C309105C8F4865D9F4FFC010C940F040F
:1002600083E3089584E3089585E3089586E308957C
:1002700087E3089588E3089589E308958AE208955D
:1002800080E3089583E20895089581E3089582E369
:100290000895CF93C82F40E060E082E00E944403BD
:1002A00040E061E082E00E9444034C2F407150E046
:1002B0005595479555954795559547955595479526
:1002C00064E082E00E9444034C2F407250E0559558
:1002D0004795559547955595479555954795559506
:1002E000479565E082E00E9444034C2F407450E043
:1002F000042E452F000C441F550B000C441F551FA6
:1003000066E082E00E9444034C2F441F4427441FB0
:1003100067E082E00E94440341E062E082E00E94E4
:10032000440383EC99E00197F1F700C0000040E03E
:1003300062E082E00E94440383EC99E00197F1F7C8
:1003400000C000004C2F417064E082E00E94440332
:100350004C2F427050E05595479565E082E00E9431
:1003600044034C2F447050E055954795559547955B
:1003700066E082E00E944403C8704C2F50E055951F
:100380004795559547955595479567E082E00E94BA
:10039000440341E062E082E00E94440383EC99E080
:1003A0000197F1F700C0000040E062E082E00E94A7
:1003B000440383EC99E00197F1F700C0000087E85F
:1003C00093E10197F1F700C00000CF91089561E03B
:1003D00082E00E94FD032FEF84E39CE021508040E7
:1003E0009040E1F700C0000082E30E94490187E8E5
:1003F00093E10197F1F700C0000088E20E944901F3
:1004000087E893E10197F1F700C000008CE00E94BB
:10041000490187E893E10197F1F700C0000081E00E
:100420000E94490187E893E10197F1F700C00000BD
:10043000109260000895CF93C82F41E060E082E001
:100440000E94440340E061E082E00E9444034C2F9C
:10045000407150E055954795559547955595479569
:100460005595479564E082E00E9444034C2F40720A
:1004700050E0559547955595479555954795559510
:1004800047955595479565E082E00E9444034C2FBF
:10049000407450E0042E452F000C441F550B000CF7
:1004A000441F551F66E082E00E9444034C2F441F06
:1004B0004427441F67E082E00E94440341E062E079
:1004C00082E00E94440383EC99E00197F1F700C0B9
:1004D000000040E062E082E00E94440383EC99E087
:1004E0000197F1F700C000004C2F417064E082E0FA
:1004F0000E9444034C2F427050E05595479565E0AB
:1005000082E00E9444034C2F447050E0559547957B
:100510005595479566E082E00E944403C8704C2FD1
:1005200050E055954795559547955595479567E002
:1005300082E00E94440341E062E082E00E944403C2
:1005400083EC99E00197F1F700C0000040E062E021
:1005500082E00E94440383EC99E00197F1F700C028
:10056000000087E893E10197F1F700C00000CF9108
:100570000895813051F018F0823069F0089540E01C
:1005800064E083E00E944403089540E060E083E07B
:100590000E944403089540E065E083E00E94440324
:1005A0000895683008F06FC0843008F06CC0813066
:1005B00001F130F08230B1F1833009F44CC008957C
:1005C000413059F42AB381E090E002C0880F991FAE
:1005D0006A95E2F7822B8ABB08952AB381E090E006
:1005E00002C0880F991F6A95E2F7809582238ABB23
:1005F0000895413059F427B381E090E002C0880F9C
:10060000991F6A95E2F7822B87BB089527B381E093
:1006100090E002C0880F991F6A95E2F780958223C7
:1006200087BB0895413059F424B381E090E002C0C3
:10063000880F991F6A95E2F7822B84BB089524B333
:1006400081E090E002C0880F991F6A95E2F78095DB
:10065000822384BB0895413059F421B381E090E0B6
:1006600002C0880F991F6A95E2F7822B81BB08951B
:1006700021B381E090E002C0880F991F6A95E2F7EC
:100680008095822381BB0895683008F06FC0843064
:1006900008F06CC0813001F130F08230B1F183306C
:1006A00009F44CC00895413059F42BB381E090E037
:1006B00002C0880F991F6A95E2F7822B8BBB0895C1
:1006C0002BB381E090E002C0880F991F6A95E2F792
:1006D000809582238BBB0895413059F428B381E083
:1006E00090E002C0880F991F6A95E2F7822B88BBC1
:1006F000089528B381E090E002C0880F991F6A95A1
:10070000E2F78095822388BB0895413059F425B3E0
:1007100081E090E002C0880F991F6A95E2F7822B72
:1007200085BB089525B381E090E002C0880F991F32
:100730006A95E2F78095822385BB0895413059F48C
:1007400022B381E090E002C0880F991F6A95E2F71A
:10075000822B82BB089522B381E090E002C0880F13
:10076000991F6A95E2F78095822382BB08956830CD
:10077000B0F58430B0F5813089F028F08230C9F0CE
:10078000833011F130C089B390E002C09595879510
:100790006A95E2F780FF29C081E0089586B390E072
:1007A00002C0959587956A95E2F780FF20C081E0A9
:1007B000089583B390E002C0959587956A95E2F716
:1007C00080FF17C081E0089580B390E002C0959546
:1007D00087956A95E2F780FF0EC081E0089580E07A
:1007E000089580E0089580E0089580E0089580E015
:1007F000089580E0089580E00895843078F4813091
:1008000041F028F0823039F0833039F008956ABB26
:10081000089567BB089564BB089561BB0895EE0F0A
:0E082000FF1F0590F491E02D0994F894FFCF8E
:02082E000100C7
:00000001FF
