S014000041737369676E6D656E745F342E7372656364
S11300000C942A000C9434000C9434000C943400A6
S11300100C9434000C9434000C9434000C9434008C
S11300200C9434000C9434000C9434000C9434007C
S11300300C9434000C9434000C9434000C9434006C
S11300400C9434000C9434000C9434000C9434005C
S11300500C94340011241FBECFE5D8E0DEBFCDBF21
S11300600E9436000C940E020C940000CF93DF9390
S113007000D01F92CDB7DEB70E948A000E94900084
S11300800E94C90081E0898382E08A831B82E12C7B
S1130090F12C3BC00E949400811110C0E1E0F0E01B
S11300A0EC0FFD1FEE0DFF1D80810E9499008FE370
S11300B09CE90197F1F700C0000013C080E00E94A2
S11300C0B10082E00E94B10081E00E94B1009AEA8E
S11300D026EE36E981E09150204030408040D9F747
S11300E000000F5F1F4F02C000E010E0083C110544
S11300F08CF2E1E0F0E0EC0FFD1FEE0DFF1D8081BE
S11301000E94B1009FEFE91AF90A23E0E216F10414
S11301105CF3BDCF8BB340E060E00E94E200089541
S11301208BB381608BBB089560E080E00E94C801BE
S11301300895813051F018F0823069F0089541E05B
S113014062E083E00E945501089541E060E083E0AD
S11301500E945501089541E065E083E00E94550145
S11301600895813051F018F0823069F0089540E02C
S113017062E083E00E945501089540E060E083E07E
S11301800E945501089540E065E083E00E94550116
S1130190089541E062E083E00E94E20080E00E9472
S11301A0B10041E060E083E00E94E20081E00E944F
S11301B0B10041E065E083E00E94E20082E00E9439
S11301C0B1000895683008F06FC0843008F06CC046
S11301D0813001F130F08230B1F1833009F44CC048
S11301E00895413059F42AB381E090E002C0880FA9
S11301F0991F6A95E2F7822B8ABB08952AB381E09E
S113020090E002C0880F991F6A95E2F780958223D7
S11302108ABB0895413059F427B381E090E002C0CD
S1130220880F991F6A95E2F7822B87BB089527B33D
S113023081E090E002C0880F991F6A95E2F78095EB
S1130240822387BB0895413059F424B381E090E0C0
S113025002C0880F991F6A95E2F7822B84BB089528
S113026024B381E090E002C0880F991F6A95E2F7F9
S11302708095822384BB0895413059F421B381E0F1
S113028090E002C0880F991F6A95E2F7822B81BB28
S1130290089521B381E090E002C0880F991F6A9508
S11302A0E2F78095822381BB0895683008F06FC01F
S11302B0843008F06CC0813001F130F08230B1F14B
S11302C0833009F44CC00895413059F42BB381E0D4
S11302D090E002C0880F991F6A95E2F7822B8BBBCE
S11302E008952BB381E090E002C0880F991F6A95AE
S11302F0E2F7809582238BBB0895413059F428B3EB
S113030081E090E002C0880F991F6A95E2F7822B82
S113031088BB089528B381E090E002C0880F991F3C
S11303206A95E2F78095822388BB0895413059F499
S113033025B381E090E002C0880F991F6A95E2F727
S1130340822B85BB089525B381E090E002C0880F1D
S1130350991F6A95E2F78095822385BB0895413001
S113036059F422B381E090E002C0880F991F6A9586
S1130370E2F7822B82BB089522B381E090E002C0B1
S1130380880F991F6A95E2F78095822382BB0895AE
S11303906830B0F58430B0F5813089F028F08230CF
S11303A0C9F0833011F130C089B390E002C0959553
S11303B087956A95E2F780FF29C081E0089586B3A6
S11303C090E002C0959587956A95E2F780FF20C07A
S11303D081E0089583B390E002C0959587956A956E
S11303E0E2F780FF17C081E0089580B390E002C077
S11303F0959587956A95E2F780FF0EC081E0089590
S113040080E0089580E0089580E0089580E00895F4
S113041080E0089580E0089580E00895F894FFCF87
S9030000FC
